{
  "_format": "hh-sol-artifact-1",
  "contractName": "TokenMVP",
  "sourceName": "contracts/TokenMVP.sol",
  "abi": [
    {
      "inputs": [
        {
          "internalType": "uint256",
          "name": "_investmentGoal",
          "type": "uint256"
        },
        {
          "internalType": "uint32",
          "name": "_interestRate",
          "type": "uint32"
        },
        {
          "internalType": "enum TokenMVP.FrequencyTerms",
          "name": "_paymentFrequency",
          "type": "uint8"
        },
        {
          "internalType": "uint32",
          "name": "_totalRepayments",
          "type": "uint32"
        },
        {
          "internalType": "uint32",
          "name": "_repaymentGracePeriodDays",
          "type": "uint32"
        },
        {
          "internalType": "string",
          "name": "_industry",
          "type": "string"
        },
        {
          "internalType": "string",
          "name": "_category",
          "type": "string"
        },
        {
          "internalType": "address",
          "name": "_usdcTokenAddress",
          "type": "address"
        }
      ],
      "stateMutability": "nonpayable",
      "type": "constructor"
    },
    {
      "anonymous": false,
      "inputs": [
        {
          "indexed": true,
          "internalType": "address",
          "name": "owner",
          "type": "address"
        },
        {
          "indexed": true,
          "internalType": "address",
          "name": "spender",
          "type": "address"
        },
        {
          "indexed": false,
          "internalType": "uint256",
          "name": "value",
          "type": "uint256"
        }
      ],
      "name": "Approval",
      "type": "event"
    },
    {
      "anonymous": false,
      "inputs": [
        {
          "indexed": true,
          "internalType": "bytes32",
          "name": "campaignID",
          "type": "bytes32"
        }
      ],
      "name": "CampaignAborted",
      "type": "event"
    },
    {
      "anonymous": false,
      "inputs": [
        {
          "indexed": true,
          "internalType": "address",
          "name": "_from",
          "type": "address"
        },
        {
          "indexed": false,
          "internalType": "bytes32",
          "name": "campaignID",
          "type": "bytes32"
        },
        {
          "indexed": false,
          "internalType": "uint32",
          "name": "_interestRate",
          "type": "uint32"
        },
        {
          "indexed": false,
          "internalType": "enum TokenMVP.FrequencyTerms",
          "name": "_paymentFrequency",
          "type": "uint8"
        },
        {
          "indexed": false,
          "internalType": "uint32",
          "name": "_totalRepayments",
          "type": "uint32"
        },
        {
          "indexed": false,
          "internalType": "uint32",
          "name": "_repaymentGracePeriod",
          "type": "uint32"
        },
        {
          "indexed": false,
          "internalType": "string",
          "name": "_industry",
          "type": "string"
        },
        {
          "indexed": false,
          "internalType": "string",
          "name": "_category",
          "type": "string"
        }
      ],
      "name": "CampaignCreated",
      "type": "event"
    },
    {
      "anonymous": false,
      "inputs": [
        {
          "indexed": true,
          "internalType": "bytes32",
          "name": "campaignID",
          "type": "bytes32"
        },
        {
          "indexed": false,
          "internalType": "uint256",
          "name": "termStartDate",
          "type": "uint256"
        },
        {
          "indexed": false,
          "internalType": "uint256",
          "name": "loanMaturityDate",
          "type": "uint256"
        }
      ],
      "name": "CampaignFunded",
      "type": "event"
    },
    {
      "anonymous": false,
      "inputs": [
        {
          "indexed": true,
          "internalType": "bytes32",
          "name": "campaignID",
          "type": "bytes32"
        },
        {
          "indexed": false,
          "internalType": "uint256",
          "name": "_amount",
          "type": "uint256"
        },
        {
          "indexed": false,
          "internalType": "uint256",
          "name": "_repayedDebtAmount",
          "type": "uint256"
        }
      ],
      "name": "DebtRepayed",
      "type": "event"
    },
    {
      "anonymous": false,
      "inputs": [
        {
          "indexed": true,
          "internalType": "bytes32",
          "name": "campaignID",
          "type": "bytes32"
        },
        {
          "indexed": false,
          "internalType": "uint256",
          "name": "campaignStartDate",
          "type": "uint256"
        },
        {
          "indexed": false,
          "internalType": "uint256",
          "name": "campaignEndDate",
          "type": "uint256"
        }
      ],
      "name": "FundingStarted",
      "type": "event"
    },
    {
      "anonymous": false,
      "inputs": [
        {
          "indexed": true,
          "internalType": "bytes32",
          "name": "campaignID",
          "type": "bytes32"
        },
        {
          "indexed": true,
          "internalType": "address",
          "name": "owner",
          "type": "address"
        },
        {
          "indexed": false,
          "internalType": "uint256",
          "name": "_amount",
          "type": "uint256"
        }
      ],
      "name": "FundsWithdrawn",
      "type": "event"
    },
    {
      "anonymous": false,
      "inputs": [
        {
          "indexed": true,
          "internalType": "address",
          "name": "_from",
          "type": "address"
        },
        {
          "indexed": false,
          "internalType": "uint256",
          "name": "_amount",
          "type": "uint256"
        },
        {
          "indexed": false,
          "internalType": "uint256",
          "name": "_currentlyInvestedFunds",
          "type": "uint256"
        }
      ],
      "name": "InvestmentDeposited",
      "type": "event"
    },
    {
      "anonymous": false,
      "inputs": [
        {
          "indexed": true,
          "internalType": "bytes32",
          "name": "campaignID",
          "type": "bytes32"
        },
        {
          "indexed": true,
          "internalType": "address",
          "name": "investor",
          "type": "address"
        },
        {
          "indexed": false,
          "internalType": "uint256",
          "name": "_amount",
          "type": "uint256"
        }
      ],
      "name": "InvestmentRetaken",
      "type": "event"
    },
    {
      "anonymous": false,
      "inputs": [
        {
          "indexed": true,
          "internalType": "address",
          "name": "previousOwner",
          "type": "address"
        },
        {
          "indexed": true,
          "internalType": "address",
          "name": "newOwner",
          "type": "address"
        }
      ],
      "name": "OwnershipTransferred",
      "type": "event"
    },
    {
      "anonymous": false,
      "inputs": [
        {
          "indexed": false,
          "internalType": "address",
          "name": "account",
          "type": "address"
        }
      ],
      "name": "Paused",
      "type": "event"
    },
    {
      "anonymous": false,
      "inputs": [
        {
          "indexed": true,
          "internalType": "bytes32",
          "name": "campaignID",
          "type": "bytes32"
        },
        {
          "indexed": true,
          "internalType": "address",
          "name": "sender",
          "type": "address"
        },
        {
          "indexed": false,
          "internalType": "uint256",
          "name": "_amount",
          "type": "uint256"
        }
      ],
      "name": "PaymentWithdrawn",
      "type": "event"
    },
    {
      "anonymous": false,
      "inputs": [
        {
          "indexed": true,
          "internalType": "bytes32",
          "name": "campaignID",
          "type": "bytes32"
        },
        {
          "indexed": false,
          "internalType": "uint256",
          "name": "totalSupply",
          "type": "uint256"
        }
      ],
      "name": "TokensDropped",
      "type": "event"
    },
    {
      "anonymous": false,
      "inputs": [
        {
          "indexed": true,
          "internalType": "address",
          "name": "from",
          "type": "address"
        },
        {
          "indexed": true,
          "internalType": "address",
          "name": "to",
          "type": "address"
        },
        {
          "indexed": false,
          "internalType": "uint256",
          "name": "value",
          "type": "uint256"
        }
      ],
      "name": "Transfer",
      "type": "event"
    },
    {
      "anonymous": false,
      "inputs": [
        {
          "indexed": false,
          "internalType": "address",
          "name": "account",
          "type": "address"
        }
      ],
      "name": "Unpaused",
      "type": "event"
    },
    {
      "inputs": [],
      "name": "abortCampaign",
      "outputs": [],
      "stateMutability": "nonpayable",
      "type": "function"
    },
    {
      "inputs": [
        {
          "internalType": "address",
          "name": "owner",
          "type": "address"
        },
        {
          "internalType": "address",
          "name": "spender",
          "type": "address"
        }
      ],
      "name": "allowance",
      "outputs": [
        {
          "internalType": "uint256",
          "name": "",
          "type": "uint256"
        }
      ],
      "stateMutability": "view",
      "type": "function"
    },
    {
      "inputs": [
        {
          "internalType": "address",
          "name": "spender",
          "type": "address"
        },
        {
          "internalType": "uint256",
          "name": "amount",
          "type": "uint256"
        }
      ],
      "name": "approve",
      "outputs": [
        {
          "internalType": "bool",
          "name": "",
          "type": "bool"
        }
      ],
      "stateMutability": "nonpayable",
      "type": "function"
    },
    {
      "inputs": [
        {
          "internalType": "address",
          "name": "account",
          "type": "address"
        }
      ],
      "name": "balanceOf",
      "outputs": [
        {
          "internalType": "uint256",
          "name": "",
          "type": "uint256"
        }
      ],
      "stateMutability": "view",
      "type": "function"
    },
    {
      "inputs": [
        {
          "internalType": "address",
          "name": "",
          "type": "address"
        }
      ],
      "name": "balanceOfInvestedFunds",
      "outputs": [
        {
          "internalType": "uint256",
          "name": "",
          "type": "uint256"
        }
      ],
      "stateMutability": "view",
      "type": "function"
    },
    {
      "inputs": [
        {
          "internalType": "address",
          "name": "",
          "type": "address"
        }
      ],
      "name": "balanceOfRepayedFunds",
      "outputs": [
        {
          "internalType": "uint256",
          "name": "",
          "type": "uint256"
        }
      ],
      "stateMutability": "view",
      "type": "function"
    },
    {
      "inputs": [],
      "name": "campaignEndDate",
      "outputs": [
        {
          "internalType": "uint256",
          "name": "",
          "type": "uint256"
        }
      ],
      "stateMutability": "view",
      "type": "function"
    },
    {
      "inputs": [],
      "name": "campaignID",
      "outputs": [
        {
          "internalType": "bytes32",
          "name": "",
          "type": "bytes32"
        }
      ],
      "stateMutability": "view",
      "type": "function"
    },
    {
      "inputs": [],
      "name": "campaignStartDate",
      "outputs": [
        {
          "internalType": "uint256",
          "name": "",
          "type": "uint256"
        }
      ],
      "stateMutability": "view",
      "type": "function"
    },
    {
      "inputs": [],
      "name": "category",
      "outputs": [
        {
          "internalType": "string",
          "name": "",
          "type": "string"
        }
      ],
      "stateMutability": "view",
      "type": "function"
    },
    {
      "inputs": [],
      "name": "currentPhase",
      "outputs": [
        {
          "internalType": "enum TokenMVP.CampaignPhase",
          "name": "",
          "type": "uint8"
        }
      ],
      "stateMutability": "view",
      "type": "function"
    },
    {
      "inputs": [],
      "name": "currentlyInvestedFunds",
      "outputs": [
        {
          "internalType": "uint256",
          "name": "",
          "type": "uint256"
        }
      ],
      "stateMutability": "view",
      "type": "function"
    },
    {
      "inputs": [
        {
          "internalType": "uint256",
          "name": "_amount",
          "type": "uint256"
        }
      ],
      "name": "debtRepayment",
      "outputs": [],
      "stateMutability": "payable",
      "type": "function"
    },
    {
      "inputs": [],
      "name": "decimals",
      "outputs": [
        {
          "internalType": "uint8",
          "name": "",
          "type": "uint8"
        }
      ],
      "stateMutability": "view",
      "type": "function"
    },
    {
      "inputs": [
        {
          "internalType": "address",
          "name": "spender",
          "type": "address"
        },
        {
          "internalType": "uint256",
          "name": "subtractedValue",
          "type": "uint256"
        }
      ],
      "name": "decreaseAllowance",
      "outputs": [
        {
          "internalType": "bool",
          "name": "",
          "type": "bool"
        }
      ],
      "stateMutability": "nonpayable",
      "type": "function"
    },
    {
      "inputs": [
        {
          "internalType": "uint256",
          "name": "_amount",
          "type": "uint256"
        }
      ],
      "name": "depositInvestment",
      "outputs": [],
      "stateMutability": "payable",
      "type": "function"
    },
    {
      "inputs": [],
      "name": "dropTokensToInvestors",
      "outputs": [],
      "stateMutability": "nonpayable",
      "type": "function"
    },
    {
      "inputs": [
        {
          "internalType": "address",
          "name": "spender",
          "type": "address"
        },
        {
          "internalType": "uint256",
          "name": "addedValue",
          "type": "uint256"
        }
      ],
      "name": "increaseAllowance",
      "outputs": [
        {
          "internalType": "bool",
          "name": "",
          "type": "bool"
        }
      ],
      "stateMutability": "nonpayable",
      "type": "function"
    },
    {
      "inputs": [
        {
          "internalType": "uint256",
          "name": "",
          "type": "uint256"
        }
      ],
      "name": "indexOfInvestorAddresses",
      "outputs": [
        {
          "internalType": "address",
          "name": "",
          "type": "address"
        }
      ],
      "stateMutability": "view",
      "type": "function"
    },
    {
      "inputs": [],
      "name": "industry",
      "outputs": [
        {
          "internalType": "string",
          "name": "",
          "type": "string"
        }
      ],
      "stateMutability": "view",
      "type": "function"
    },
    {
      "inputs": [],
      "name": "interestRate",
      "outputs": [
        {
          "internalType": "uint32",
          "name": "",
          "type": "uint32"
        }
      ],
      "stateMutability": "view",
      "type": "function"
    },
    {
      "inputs": [],
      "name": "investmentGoal",
      "outputs": [
        {
          "internalType": "uint256",
          "name": "",
          "type": "uint256"
        }
      ],
      "stateMutability": "view",
      "type": "function"
    },
    {
      "inputs": [
        {
          "internalType": "address",
          "name": "_address",
          "type": "address"
        }
      ],
      "name": "investorIsAlreadyIndexed",
      "outputs": [
        {
          "internalType": "bool",
          "name": "",
          "type": "bool"
        }
      ],
      "stateMutability": "view",
      "type": "function"
    },
    {
      "inputs": [],
      "name": "loanMaturityDate",
      "outputs": [
        {
          "internalType": "uint256",
          "name": "",
          "type": "uint256"
        }
      ],
      "stateMutability": "view",
      "type": "function"
    },
    {
      "inputs": [],
      "name": "name",
      "outputs": [
        {
          "internalType": "string",
          "name": "",
          "type": "string"
        }
      ],
      "stateMutability": "view",
      "type": "function"
    },
    {
      "inputs": [],
      "name": "numberOfInvestors",
      "outputs": [
        {
          "internalType": "uint256",
          "name": "",
          "type": "uint256"
        }
      ],
      "stateMutability": "view",
      "type": "function"
    },
    {
      "inputs": [],
      "name": "owner",
      "outputs": [
        {
          "internalType": "address",
          "name": "",
          "type": "address"
        }
      ],
      "stateMutability": "view",
      "type": "function"
    },
    {
      "inputs": [],
      "name": "pause",
      "outputs": [],
      "stateMutability": "nonpayable",
      "type": "function"
    },
    {
      "inputs": [],
      "name": "paused",
      "outputs": [
        {
          "internalType": "bool",
          "name": "",
          "type": "bool"
        }
      ],
      "stateMutability": "view",
      "type": "function"
    },
    {
      "inputs": [],
      "name": "paymentFrequency",
      "outputs": [
        {
          "internalType": "enum TokenMVP.FrequencyTerms",
          "name": "",
          "type": "uint8"
        }
      ],
      "stateMutability": "view",
      "type": "function"
    },
    {
      "inputs": [],
      "name": "renounceOwnership",
      "outputs": [],
      "stateMutability": "nonpayable",
      "type": "function"
    },
    {
      "inputs": [],
      "name": "repayedDebtAmount",
      "outputs": [
        {
          "internalType": "uint256",
          "name": "",
          "type": "uint256"
        }
      ],
      "stateMutability": "view",
      "type": "function"
    },
    {
      "inputs": [],
      "name": "repaymentGracePeriod",
      "outputs": [
        {
          "internalType": "uint32",
          "name": "",
          "type": "uint32"
        }
      ],
      "stateMutability": "view",
      "type": "function"
    },
    {
      "inputs": [
        {
          "internalType": "uint256",
          "name": "_amount",
          "type": "uint256"
        }
      ],
      "name": "retakeInvestment",
      "outputs": [],
      "stateMutability": "nonpayable",
      "type": "function"
    },
    {
      "inputs": [],
      "name": "startFunding",
      "outputs": [],
      "stateMutability": "nonpayable",
      "type": "function"
    },
    {
      "inputs": [],
      "name": "symbol",
      "outputs": [
        {
          "internalType": "string",
          "name": "",
          "type": "string"
        }
      ],
      "stateMutability": "view",
      "type": "function"
    },
    {
      "inputs": [],
      "name": "termStartDate",
      "outputs": [
        {
          "internalType": "uint256",
          "name": "",
          "type": "uint256"
        }
      ],
      "stateMutability": "view",
      "type": "function"
    },
    {
      "inputs": [],
      "name": "totalRepayments",
      "outputs": [
        {
          "internalType": "uint32",
          "name": "",
          "type": "uint32"
        }
      ],
      "stateMutability": "view",
      "type": "function"
    },
    {
      "inputs": [],
      "name": "totalSupply",
      "outputs": [
        {
          "internalType": "uint256",
          "name": "",
          "type": "uint256"
        }
      ],
      "stateMutability": "view",
      "type": "function"
    },
    {
      "inputs": [
        {
          "internalType": "address",
          "name": "to",
          "type": "address"
        },
        {
          "internalType": "uint256",
          "name": "amount",
          "type": "uint256"
        }
      ],
      "name": "transfer",
      "outputs": [
        {
          "internalType": "bool",
          "name": "",
          "type": "bool"
        }
      ],
      "stateMutability": "nonpayable",
      "type": "function"
    },
    {
      "inputs": [
        {
          "internalType": "address",
          "name": "from",
          "type": "address"
        },
        {
          "internalType": "address",
          "name": "to",
          "type": "address"
        },
        {
          "internalType": "uint256",
          "name": "amount",
          "type": "uint256"
        }
      ],
      "name": "transferFrom",
      "outputs": [
        {
          "internalType": "bool",
          "name": "",
          "type": "bool"
        }
      ],
      "stateMutability": "nonpayable",
      "type": "function"
    },
    {
      "inputs": [
        {
          "internalType": "address",
          "name": "newOwner",
          "type": "address"
        }
      ],
      "name": "transferOwnership",
      "outputs": [],
      "stateMutability": "nonpayable",
      "type": "function"
    },
    {
      "inputs": [],
      "name": "unpause",
      "outputs": [],
      "stateMutability": "nonpayable",
      "type": "function"
    },
    {
      "inputs": [],
      "name": "usdcToken",
      "outputs": [
        {
          "internalType": "contract USDCToken",
          "name": "",
          "type": "address"
        }
      ],
      "stateMutability": "view",
      "type": "function"
    },
    {
      "inputs": [],
      "name": "votesRequiredforMilestoneValidation",
      "outputs": [
        {
          "internalType": "uint32",
          "name": "",
          "type": "uint32"
        }
      ],
      "stateMutability": "view",
      "type": "function"
    },
    {
      "inputs": [
        {
          "internalType": "uint256",
          "name": "_amount",
          "type": "uint256"
        }
      ],
      "name": "withdrawFundsToIssuer",
      "outputs": [],
      "stateMutability": "nonpayable",
      "type": "function"
    },
    {
      "inputs": [
        {
          "internalType": "uint256",
          "name": "_amount",
          "type": "uint256"
        }
      ],
      "name": "withdrawPaymentsToInvestor",
      "outputs": [],
      "stateMutability": "nonpayable",
      "type": "function"
    }
  ],
  "bytecode": "0x60806040523480156200001157600080fd5b5060405162005d5f38038062005d5f833981810160405281019062000037919062000b1b565b6040518060400160405280600881526020017f546f6b656e4d56500000000000000000000000000000000000000000000000008152506040518060400160405280600481526020017f544d5650000000000000000000000000000000000000000000000000000000008152508160039080519060200190620000bb929190620007c5565b508060049080519060200190620000d4929190620007c5565b5050506000600560006101000a81548160ff0219169083151502179055506200011262000106620004e660201b60201c565b620004ee60201b60201c565b80600660006101000a81548173ffffffffffffffffffffffffffffffffffffffff021916908373ffffffffffffffffffffffffffffffffffffffff1602179055506175308810158015620001695750620f42408811155b620001ab576040517f08c379a0000000000000000000000000000000000000000000000000000000008152600401620001a29062000ccf565b60405180910390fd5b8760088190555060058763ffffffff1610158015620001d15750603c8763ffffffff1611155b62000213576040517f08c379a00000000000000000000000000000000000000000000000000000000081526004016200020a9062000d67565b60405180910390fd5b86600f60006101000a81548163ffffffff021916908363ffffffff16021790555085600f60046101000a81548160ff021916908360028111156200025c576200025b62000d89565b5b021790555060008463ffffffff1610158015620002805750605a8463ffffffff1611155b620002c2576040517f08c379a0000000000000000000000000000000000000000000000000000000008152600401620002b99062000e2e565b60405180910390fd5b83600f60096101000a81548163ffffffff021916908363ffffffff16021790555060048563ffffffff161015801562000302575060308563ffffffff1611155b62000344576040517f08c379a00000000000000000000000000000000000000000000000000000000081526004016200033b9062000ec6565b60405180910390fd5b84600f60056101000a81548163ffffffff021916908363ffffffff1602179055506000835111620003ac576040517f08c379a0000000000000000000000000000000000000000000000000000000008152600401620003a39062000f5e565b60405180910390fd5b8260149080519060200190620003c4929190620007c5565b5060008251116200040c576040517f08c379a0000000000000000000000000000000000000000000000000000000008152600401620004039062000ff6565b60405180910390fd5b816015908051906020019062000424929190620007c5565b503342896040516020016200043c939291906200108d565b604051602081830303815290604052805190602001206007819055506200047a33600a6008546200046e91906200112e565b620005b460201b60201c565b3373ffffffffffffffffffffffffffffffffffffffff167fad53cc8a32d0f515a69d1815885a3a4a3c8f868452b116ca8cdd5bb159dd7677600754898989898989604051620004d097969594939291906200122f565b60405180910390a250505050505050506200148e565b600033905090565b6000600560019054906101000a900473ffffffffffffffffffffffffffffffffffffffff16905081600560016101000a81548173ffffffffffffffffffffffffffffffffffffffff021916908373ffffffffffffffffffffffffffffffffffffffff1602179055508173ffffffffffffffffffffffffffffffffffffffff168173ffffffffffffffffffffffffffffffffffffffff167f8be0079c531659141344cd1fd0a4f28419497f9722a3daafe3b4186f6b6457e060405160405180910390a35050565b600073ffffffffffffffffffffffffffffffffffffffff168273ffffffffffffffffffffffffffffffffffffffff16141562000627576040517f08c379a00000000000000000000000000000000000000000000000000000000081526004016200061e906200130a565b60405180910390fd5b6200063b600083836200072260201b60201c565b80600260008282546200064f91906200132c565b92505081905550806000808473ffffffffffffffffffffffffffffffffffffffff1673ffffffffffffffffffffffffffffffffffffffff168152602001908152602001600020600082825401925050819055508173ffffffffffffffffffffffffffffffffffffffff16600073ffffffffffffffffffffffffffffffffffffffff167fddf252ad1be2c89b69c2b068fc378daa952ba7f163c4a11628f55a4df523b3ef836040516200070291906200139a565b60405180910390a36200071e600083836200074f60201b60201c565b5050565b620007326200075460201b60201c565b6200074a838383620007a960201b620026681760201c565b505050565b505050565b62000764620007ae60201b60201c565b15620007a7576040517f08c379a00000000000000000000000000000000000000000000000000000000081526004016200079e9062001407565b60405180910390fd5b565b505050565b6000600560009054906101000a900460ff16905090565b828054620007d39062001458565b90600052602060002090601f016020900481019282620007f7576000855562000843565b82601f106200081257805160ff191683800117855562000843565b8280016001018555821562000843579182015b828111156200084257825182559160200191906001019062000825565b5b50905062000852919062000856565b5090565b5b808211156200087157600081600090555060010162000857565b5090565b6000604051905090565b600080fd5b600080fd5b6000819050919050565b6200089e8162000889565b8114620008aa57600080fd5b50565b600081519050620008be8162000893565b92915050565b600063ffffffff82169050919050565b620008df81620008c4565b8114620008eb57600080fd5b50565b600081519050620008ff81620008d4565b92915050565b600381106200091357600080fd5b50565b600081519050620009278162000905565b92915050565b600080fd5b600080fd5b6000601f19601f8301169050919050565b7f4e487b7100000000000000000000000000000000000000000000000000000000600052604160045260246000fd5b620009828262000937565b810181811067ffffffffffffffff82111715620009a457620009a362000948565b5b80604052505050565b6000620009b962000875565b9050620009c7828262000977565b919050565b600067ffffffffffffffff821115620009ea57620009e962000948565b5b620009f58262000937565b9050602081019050919050565b60005b8381101562000a2257808201518184015260208101905062000a05565b8381111562000a32576000848401525b50505050565b600062000a4f62000a4984620009cc565b620009ad565b90508281526020810184848401111562000a6e5762000a6d62000932565b5b62000a7b84828562000a02565b509392505050565b600082601f83011262000a9b5762000a9a6200092d565b5b815162000aad84826020860162000a38565b91505092915050565b600073ffffffffffffffffffffffffffffffffffffffff82169050919050565b600062000ae38262000ab6565b9050919050565b62000af58162000ad6565b811462000b0157600080fd5b50565b60008151905062000b158162000aea565b92915050565b600080600080600080600080610100898b03121562000b3f5762000b3e6200087f565b5b600062000b4f8b828c01620008ad565b985050602062000b628b828c01620008ee565b975050604062000b758b828c0162000916565b965050606062000b888b828c01620008ee565b955050608062000b9b8b828c01620008ee565b94505060a089015167ffffffffffffffff81111562000bbf5762000bbe62000884565b5b62000bcd8b828c0162000a83565b93505060c089015167ffffffffffffffff81111562000bf15762000bf062000884565b5b62000bff8b828c0162000a83565b92505060e062000c128b828c0162000b04565b9150509295985092959890939650565b600082825260208201905092915050565b7f496e766573746d656e7420676f616c206d75737420626520677265617465722060008201527f7468616e2033304b2055534420616e64206c657373207468616e20314d20555360208201527f4400000000000000000000000000000000000000000000000000000000000000604082015250565b600062000cb760418362000c22565b915062000cc48262000c33565b606082019050919050565b6000602082019050818103600083015262000cea8162000ca8565b9050919050565b7f496e7465726573742072617465206d757374206265206772656174657220746860008201527f616e20352520616e64206c657373207468616e20363025000000000000000000602082015250565b600062000d4f60378362000c22565b915062000d5c8262000cf1565b604082019050919050565b6000602082019050818103600083015262000d828162000d40565b9050919050565b7f4e487b7100000000000000000000000000000000000000000000000000000000600052602160045260246000fd5b7f52657061796d656e7420677261636520706572696f64206d757374206265206260008201527f65747765656e203020616e642039302064617973000000000000000000000000602082015250565b600062000e1660348362000c22565b915062000e238262000db8565b604082019050919050565b6000602082019050818103600083015262000e498162000e07565b9050919050565b7f546f74616c206e756d626572206f662072657061796d656e7473206d7573742060008201527f6265206174206c65617374203420616e64206c657373207468616e2034380000602082015250565b600062000eae603e8362000c22565b915062000ebb8262000e50565b604082019050919050565b6000602082019050818103600083015262000ee18162000e9f565b9050919050565b7f54686520696e64757374727920706172616d657465722063616e206e6f74206260008201527f6520656d70747900000000000000000000000000000000000000000000000000602082015250565b600062000f4660278362000c22565b915062000f538262000ee8565b604082019050919050565b6000602082019050818103600083015262000f798162000f37565b9050919050565b7f5468652063617465676f727920706172616d657465722063616e206e6f74206260008201527f6520656d70747900000000000000000000000000000000000000000000000000602082015250565b600062000fde60278362000c22565b915062000feb8262000f80565b604082019050919050565b60006020820190508181036000830152620010118162000fcf565b9050919050565b60008160601b9050919050565b6000620010328262001018565b9050919050565b6000620010468262001025565b9050919050565b620010626200105c8262000ad6565b62001039565b82525050565b6000819050919050565b62001087620010818262000889565b62001068565b82525050565b60006200109b82866200104d565b601482019150620010ad828562001072565b602082019150620010bf828462001072565b602082019150819050949350505050565b7f4e487b7100000000000000000000000000000000000000000000000000000000600052601260045260246000fd5b7f4e487b7100000000000000000000000000000000000000000000000000000000600052601160045260246000fd5b60006200113b8262000889565b9150620011488362000889565b9250826200115b576200115a620010d0565b5b828204905092915050565b6000819050919050565b6200117b8162001166565b82525050565b6200118c81620008c4565b82525050565b60038110620011a657620011a562000d89565b5b50565b6000819050620011b98262001192565b919050565b6000620011cb82620011a9565b9050919050565b620011dd81620011be565b82525050565b600081519050919050565b6000620011fb82620011e3565b62001207818562000c22565b93506200121981856020860162000a02565b620012248162000937565b840191505092915050565b600060e08201905062001246600083018a62001170565b62001255602083018962001181565b620012646040830188620011d2565b62001273606083018762001181565b62001282608083018662001181565b81810360a0830152620012968185620011ee565b905081810360c0830152620012ac8184620011ee565b905098975050505050505050565b7f45524332303a206d696e7420746f20746865207a65726f206164647265737300600082015250565b6000620012f2601f8362000c22565b9150620012ff82620012ba565b602082019050919050565b600060208201905081810360008301526200132581620012e3565b9050919050565b6000620013398262000889565b9150620013468362000889565b9250827fffffffffffffffffffffffffffffffffffffffffffffffffffffffffffffffff038211156200137e576200137d620010ff565b5b828201905092915050565b620013948162000889565b82525050565b6000602082019050620013b1600083018462001389565b92915050565b7f5061757361626c653a2070617573656400000000000000000000000000000000600082015250565b6000620013ef60108362000c22565b9150620013fc82620013b7565b602082019050919050565b600060208201905081810360008301526200142281620013e0565b9050919050565b7f4e487b7100000000000000000000000000000000000000000000000000000000600052602260045260246000fd5b600060028204905060018216806200147157607f821691505b6020821081141562001488576200148762001429565b5b50919050565b6148c1806200149e6000396000f3fe6080604052600436106102885760003560e01c806385ccf6c71161015a578063bd51e1da116100c1578063ef430aa61161007a578063ef430aa614610988578063f2fde38b146109b3578063f4e15f39146109dc578063f546dbb514610a07578063f57c954214610a32578063f8af84ef14610a5d57610288565b8063bd51e1da14610873578063c1ab6dbd1461089c578063c23fe90b146108b8578063c77578d7146108f5578063d0fb01a114610920578063dd62ed3e1461094b57610288565b8063a457c2d711610113578063a457c2d71461075e578063a61b4c251461079b578063a7c8cc7c146107d8578063a9059cbb146107ef578063ad58df271461082c578063bd2370f61461084857610288565b806385ccf6c7146106605780638da5cb5b146106895780638e589315146106b457806395d89b41146106df578063982a08721461070a5780639c1d34881461073557610288565b8063313ce567116101fe5780636779d145116101b75780636779d1451461056257806370a082311461058d578063715018a6146105ca5780637c3a00fd146105e15780637e8b2b261461060c5780638456cb591461064957610288565b8063313ce5671461047657806339509351146104a15780633f4ba83a146104de57806349ed2fa9146104f557806359a838e0146105205780635c975abb1461053757610288565b806311eac8551161025057806311eac8551461036257806318160ddd1461038d5780631af2c9fd146103b85780631d15dfbe146103e357806322eac12c1461040e57806323b872dd1461043957610288565b8063055ad42e1461028d57806306fdde03146102b857806308aa62c4146102e3578063095ea7b31461030e5780630cf010511461034b575b600080fd5b34801561029957600080fd5b506102a2610a9a565b6040516102af9190612e75565b60405180910390f35b3480156102c457600080fd5b506102cd610aad565b6040516102da9190612f29565b60405180910390f35b3480156102ef57600080fd5b506102f8610b3f565b6040516103059190612f29565b60405180910390f35b34801561031a57600080fd5b5061033560048036038101906103309190612fe4565b610bcd565b604051610342919061303f565b60405180910390f35b34801561035757600080fd5b50610360610bf0565b005b34801561036e57600080fd5b50610377610cf7565b60405161038491906130b9565b60405180910390f35b34801561039957600080fd5b506103a2610d1d565b6040516103af91906130e3565b60405180910390f35b3480156103c457600080fd5b506103cd610d27565b6040516103da91906130e3565b60405180910390f35b3480156103ef57600080fd5b506103f8610d2d565b60405161040591906130e3565b60405180910390f35b34801561041a57600080fd5b50610423610d33565b604051610430919061311d565b60405180910390f35b34801561044557600080fd5b50610460600480360381019061045b9190613138565b610d49565b60405161046d919061303f565b60405180910390f35b34801561048257600080fd5b5061048b610d78565b60405161049891906131a7565b60405180910390f35b3480156104ad57600080fd5b506104c860048036038101906104c39190612fe4565b610d81565b6040516104d5919061303f565b60405180910390f35b3480156104ea57600080fd5b506104f3610db8565b005b34801561050157600080fd5b5061050a610dca565b60405161051791906131db565b60405180910390f35b34801561052c57600080fd5b50610535610dd0565b005b34801561054357600080fd5b5061054c611005565b604051610559919061303f565b60405180910390f35b34801561056e57600080fd5b5061057761101c565b60405161058491906130e3565b60405180910390f35b34801561059957600080fd5b506105b460048036038101906105af91906131f6565b611022565b6040516105c191906130e3565b60405180910390f35b3480156105d657600080fd5b506105df61106a565b005b3480156105ed57600080fd5b506105f661107e565b604051610603919061311d565b60405180910390f35b34801561061857600080fd5b50610633600480360381019061062e91906131f6565b611094565b604051610640919061303f565b60405180910390f35b34801561065557600080fd5b5061065e611135565b005b34801561066c57600080fd5b5061068760048036038101906106829190613223565b611147565b005b34801561069557600080fd5b5061069e6113e9565b6040516106ab919061325f565b60405180910390f35b3480156106c057600080fd5b506106c9611413565b6040516106d691906132c2565b60405180910390f35b3480156106eb57600080fd5b506106f4611426565b6040516107019190612f29565b60405180910390f35b34801561071657600080fd5b5061071f6114b8565b60405161072c919061311d565b60405180910390f35b34801561074157600080fd5b5061075c60048036038101906107579190613223565b6114ce565b005b34801561076a57600080fd5b5061078560048036038101906107809190612fe4565b611718565b604051610792919061303f565b60405180910390f35b3480156107a757600080fd5b506107c260048036038101906107bd9190613223565b61178f565b6040516107cf919061325f565b60405180910390f35b3480156107e457600080fd5b506107ed6117c2565b005b3480156107fb57600080fd5b5061081660048036038101906108119190612fe4565b6118da565b604051610823919061303f565b60405180910390f35b61084660048036038101906108419190613223565b6118fd565b005b34801561085457600080fd5b5061085d611ee0565b60405161086a91906130e3565b60405180910390f35b34801561087f57600080fd5b5061089a60048036038101906108959190613223565b611ee6565b005b6108b660048036038101906108b19190613223565b612187565b005b3480156108c457600080fd5b506108df60048036038101906108da91906131f6565b612471565b6040516108ec91906130e3565b60405180910390f35b34801561090157600080fd5b5061090a612489565b604051610917919061311d565b60405180910390f35b34801561092c57600080fd5b5061093561249f565b60405161094291906130e3565b60405180910390f35b34801561095757600080fd5b50610972600480360381019061096d91906132dd565b6124a5565b60405161097f91906130e3565b60405180910390f35b34801561099457600080fd5b5061099d61252c565b6040516109aa9190612f29565b60405180910390f35b3480156109bf57600080fd5b506109da60048036038101906109d591906131f6565b6125ba565b005b3480156109e857600080fd5b506109f161263e565b6040516109fe91906130e3565b60405180910390f35b348015610a1357600080fd5b50610a1c612644565b604051610a2991906130e3565b60405180910390f35b348015610a3e57600080fd5b50610a4761264a565b604051610a5491906130e3565b60405180910390f35b348015610a6957600080fd5b50610a846004803603810190610a7f91906131f6565b612650565b604051610a9191906130e3565b60405180910390f35b601660049054906101000a900460ff1681565b606060038054610abc9061334c565b80601f0160208091040260200160405190810160405280929190818152602001828054610ae89061334c565b8015610b355780601f10610b0a57610100808354040283529160200191610b35565b820191906000526020600020905b815481529060010190602001808311610b1857829003601f168201915b5050505050905090565b60148054610b4c9061334c565b80601f0160208091040260200160405190810160405280929190818152602001828054610b789061334c565b8015610bc55780601f10610b9a57610100808354040283529160200191610bc5565b820191906000526020600020905b815481529060010190602001808311610ba857829003601f168201915b505050505081565b600080610bd861266d565b9050610be5818585612675565b600191505092915050565b610bf8612840565b60006006811115610c0c57610c0b612dfe565b5b601660049054906101000a900460ff166006811115610c2e57610c2d612dfe565b5b14610c6e576040517f08c379a0000000000000000000000000000000000000000000000000000000008152600401610c65906133f0565b60405180910390fd5b6002601660046101000a81548160ff02191690836006811115610c9457610c93612dfe565b5b021790555042601281905550624f1a0042610caf919061343f565b6013819055506007547fc399050f46b431e23c83a021dcc100198cbac887863c4a4e93eb9e6e296e7563601254601354604051610ced929190613495565b60405180910390a2565b600660009054906101000a900473ffffffffffffffffffffffffffffffffffffffff1681565b6000600254905090565b600b5481565b60115481565b600f60059054906101000a900463ffffffff1681565b600080610d5461266d565b9050610d618582856128be565b610d6c85858561294a565b60019150509392505050565b60006012905090565b600080610d8c61266d565b9050610dad818585610d9e85896124a5565b610da8919061343f565b612675565b600191505092915050565b610dc0612840565b610dc8612bc2565b565b60075481565b610dd8612840565b60036006811115610dec57610deb612dfe565b5b601660049054906101000a900460ff166006811115610e0e57610e0d612dfe565b5b14610e4e576040517f08c379a0000000000000000000000000000000000000000000000000000000008152600401610e4590613530565b60405180910390fd5b60005b600b54811015610f96576000600c600083815260200190815260200160002060009054906101000a900473ffffffffffffffffffffffffffffffffffffffff1690506000600a600d60008473ffffffffffffffffffffffffffffffffffffffff1673ffffffffffffffffffffffffffffffffffffffff16815260200190815260200160002054610ee1919061357f565b90506000610eef8383610bcd565b905080610f31576040517f08c379a0000000000000000000000000000000000000000000000000000000008152600401610f2890613622565b60405180910390fd5b6000610f3d84846118da565b905080610f7f576040517f08c379a0000000000000000000000000000000000000000000000000000000008152600401610f76906136b4565b60405180910390fd5b505050508080610f8e906136d4565b915050610e51565b506004601660046101000a81548160ff02191690836006811115610fbd57610fbc612dfe565b5b02179055506007547ffeef3e2a0d77d5762aeb88159e5f085761cdcedb3fa9f2ac8ef790755795ba01610fee610d1d565b604051610ffb91906130e3565b60405180910390a2565b6000600560009054906101000a900460ff16905090565b60135481565b60008060008373ffffffffffffffffffffffffffffffffffffffff1673ffffffffffffffffffffffffffffffffffffffff168152602001908152602001600020549050919050565b611072612840565b61107c6000612c25565b565b600f60009054906101000a900463ffffffff1681565b600080600090505b600b5481101561112a578273ffffffffffffffffffffffffffffffffffffffff16600c600083815260200190815260200160002060009054906101000a900473ffffffffffffffffffffffffffffffffffffffff1673ffffffffffffffffffffffffffffffffffffffff161415611117576001915050611130565b8080611122906136d4565b91505061109c565b50600090505b919050565b61113d612840565b611145612ceb565b565b6005600681111561115b5761115a612dfe565b5b601660049054906101000a900460ff16600681111561117d5761117c612dfe565b5b146111bd576040517f08c379a00000000000000000000000000000000000000000000000000000000081526004016111b4906137b5565b60405180910390fd5b600a8111801561120c5750600e60003373ffffffffffffffffffffffffffffffffffffffff1673ffffffffffffffffffffffffffffffffffffffff168152602001908152602001600020548111155b61124b576040517f08c379a00000000000000000000000000000000000000000000000000000000081526004016112429061386d565b60405180910390fd5b80600e60003373ffffffffffffffffffffffffffffffffffffffff1673ffffffffffffffffffffffffffffffffffffffff168152602001908152602001600020600082825461129a919061388d565b925050819055506000600660009054906101000a900473ffffffffffffffffffffffffffffffffffffffff1673ffffffffffffffffffffffffffffffffffffffff1663a9059cbb33846040518363ffffffff1660e01b81526004016113009291906138c1565b602060405180830381600087803b15801561131a57600080fd5b505af115801561132e573d6000803e3d6000fd5b505050506040513d601f19601f820116820180604052508101906113529190613916565b905080611394576040517f08c379a000000000000000000000000000000000000000000000000000000000815260040161138b90613a01565b60405180910390fd5b3373ffffffffffffffffffffffffffffffffffffffff166007547f380e28ce16426cf8e5bca456103bedccf7a83be275f6fe8277317fed833899cd846040516113dd91906130e3565b60405180910390a35050565b6000600560019054906101000a900473ffffffffffffffffffffffffffffffffffffffff16905090565b600f60049054906101000a900460ff1681565b6060600480546114359061334c565b80601f01602080910402602001604051908101604052809291908181526020018280546114619061334c565b80156114ae5780601f10611483576101008083540402835291602001916114ae565b820191906000526020600020905b81548152906001019060200180831161149157829003601f168201915b5050505050905090565b600f60099054906101000a900463ffffffff1681565b6114d6612840565b600460068111156114ea576114e9612dfe565b5b601660049054906101000a900460ff16600681111561150c5761150b612dfe565b5b1461154c576040517f08c379a000000000000000000000000000000000000000000000000000000000815260040161154390613ab9565b60405180910390fd5b600a811015801561155f57506009548111155b61159e576040517f08c379a000000000000000000000000000000000000000000000000000000000815260040161159590613b71565b60405180910390fd5b6000600660009054906101000a900473ffffffffffffffffffffffffffffffffffffffff1673ffffffffffffffffffffffffffffffffffffffff1663a9059cbb6115e66113e9565b846040518363ffffffff1660e01b81526004016116049291906138c1565b602060405180830381600087803b15801561161e57600080fd5b505af1158015611632573d6000803e3d6000fd5b505050506040513d601f19601f820116820180604052508101906116569190613916565b905080611698576040517f08c379a000000000000000000000000000000000000000000000000000000000815260040161168f90613c03565b60405180910390fd5b6005601660046101000a81548160ff021916908360068111156116be576116bd612dfe565b5b02179055503373ffffffffffffffffffffffffffffffffffffffff166007547f13e7ed68a0fe9e4bcafdde5f49381514a9ee7e34ff7d926eadab64c1e0e77f168460405161170c91906130e3565b60405180910390a35050565b60008061172361266d565b9050600061173182866124a5565b905083811015611776576040517f08c379a000000000000000000000000000000000000000000000000000000000815260040161176d90613c95565b60405180910390fd5b6117838286868403612675565b60019250505092915050565b600c6020528060005260406000206000915054906101000a900473ffffffffffffffffffffffffffffffffffffffff1681565b6117ca612840565b600060068111156117de576117dd612dfe565b5b601660049054906101000a900460ff166006811115611800576117ff612dfe565b5b148061183f57506002600681111561181b5761181a612dfe565b5b601660049054906101000a900460ff16600681111561183d5761183c612dfe565b5b145b61187e576040517f08c379a000000000000000000000000000000000000000000000000000000000815260040161187590613d27565b60405180910390fd5b6006601660046101000a81548160ff021916908360068111156118a4576118a3612dfe565b5b02179055506007547faf26b04c30d7c603f8a2d5082c86cd8c6ab610b905218514077a123de85ec02a60405160405180910390a2565b6000806118e561266d565b90506118f281858561294a565b600191505092915050565b6002600681111561191157611910612dfe565b5b601660049054906101000a900460ff16600681111561193357611932612dfe565b5b14611973576040517f08c379a000000000000000000000000000000000000000000000000000000000815260040161196a90613db9565b60405180910390fd5b600a811015801561199057506000600a8261198e9190613dd9565b145b6119cf576040517f08c379a00000000000000000000000000000000000000000000000000000000081526004016119c690613e7c565b60405180910390fd5b60006009546008546119e1919061388d565b905080821115611a26576040517f08c379a0000000000000000000000000000000000000000000000000000000008152600401611a1d90613f34565b60405180910390fd5b6000600660009054906101000a900473ffffffffffffffffffffffffffffffffffffffff1673ffffffffffffffffffffffffffffffffffffffff166323b872dd3330866040518463ffffffff1660e01b8152600401611a8793929190613f54565b602060405180830381600087803b158015611aa157600080fd5b505af1158015611ab5573d6000803e3d6000fd5b505050506040513d601f19601f82011682018060405250810190611ad99190613916565b905080611b1b576040517f08c379a0000000000000000000000000000000000000000000000000000000008152600401611b1290613ffd565b60405180910390fd5b6000600d60003373ffffffffffffffffffffffffffffffffffffffff1673ffffffffffffffffffffffffffffffffffffffff16815260200190815260200160002054148015611b76575060001515611b7233611094565b1515145b15611be85733600c6000600b54815260200190815260200160002060006101000a81548173ffffffffffffffffffffffffffffffffffffffff021916908373ffffffffffffffffffffffffffffffffffffffff160217905550600b6000815480929190611be2906136d4565b91905055505b82600d60003373ffffffffffffffffffffffffffffffffffffffff1673ffffffffffffffffffffffffffffffffffffffff16815260200190815260200160002054611c33919061343f565b600d60003373ffffffffffffffffffffffffffffffffffffffff1673ffffffffffffffffffffffffffffffffffffffff1681526020019081526020016000208190555082600954611c84919061343f565b6009819055503373ffffffffffffffffffffffffffffffffffffffff167f3be441218646c6af666b87e23f90e436b8361d3e50cb504a524438d34553376084600954604051611cd4929190613495565b60405180910390a260085460095410611edb576003601660046101000a81548160ff02191690836006811115611d0d57611d0c612dfe565b5b0217905550600f60099054906101000a900463ffffffff1663ffffffff1642611d36919061343f565b60108190555060006002811115611d5057611d4f612dfe565b5b600f60049054906101000a900460ff166002811115611d7257611d71612dfe565b5b1415611db157601e600f60059054906101000a900463ffffffff16611d97919061401d565b63ffffffff16601054611daa919061343f565b6011819055505b60016002811115611dc557611dc4612dfe565b5b600f60049054906101000a900460ff166002811115611de757611de6612dfe565b5b1415611e2657603c600f60059054906101000a900463ffffffff16611e0c919061401d565b63ffffffff16601054611e1f919061343f565b6011819055505b600280811115611e3957611e38612dfe565b5b600f60049054906101000a900460ff166002811115611e5b57611e5a612dfe565b5b1415611e9a57605a600f60059054906101000a900463ffffffff16611e80919061401d565b63ffffffff16601054611e93919061343f565b6011819055505b6007547fe6c501f6d4a36d948afc98345ffe07d4f383fb2ca920a5e630699a0baca9048b601054601154604051611ed2929190613495565b60405180910390a25b505050565b60095481565b600680811115611ef957611ef8612dfe565b5b601660049054906101000a900460ff166006811115611f1b57611f1a612dfe565b5b14611f5b576040517f08c379a0000000000000000000000000000000000000000000000000000000008152600401611f52906140cd565b60405180910390fd5b600a81118015611faa5750600d60003373ffffffffffffffffffffffffffffffffffffffff1673ffffffffffffffffffffffffffffffffffffffff168152602001908152602001600020548111155b611fe9576040517f08c379a0000000000000000000000000000000000000000000000000000000008152600401611fe09061386d565b60405180910390fd5b80600d60003373ffffffffffffffffffffffffffffffffffffffff1673ffffffffffffffffffffffffffffffffffffffff1681526020019081526020016000206000828254612038919061388d565b925050819055506000600660009054906101000a900473ffffffffffffffffffffffffffffffffffffffff1673ffffffffffffffffffffffffffffffffffffffff1663a9059cbb33846040518363ffffffff1660e01b815260040161209e9291906138c1565b602060405180830381600087803b1580156120b857600080fd5b505af11580156120cc573d6000803e3d6000fd5b505050506040513d601f19601f820116820180604052508101906120f09190613916565b905080612132576040517f08c379a000000000000000000000000000000000000000000000000000000000815260040161212990613a01565b60405180910390fd5b3373ffffffffffffffffffffffffffffffffffffffff166007547f93c4f98b17e5aa1b9846c1ba82b7197c104e12abc98c4de77397e02cb69422c48460405161217b91906130e3565b60405180910390a35050565b61218f612840565b600560068111156121a3576121a2612dfe565b5b601660049054906101000a900460ff1660068111156121c5576121c4612dfe565b5b14612205576040517f08c379a00000000000000000000000000000000000000000000000000000000081526004016121fc90614185565b60405180910390fd5b6064811015801561221857506008548111155b612257576040517f08c379a000000000000000000000000000000000000000000000000000000000815260040161224e9061423d565b60405180910390fd5b6000600660009054906101000a900473ffffffffffffffffffffffffffffffffffffffff1673ffffffffffffffffffffffffffffffffffffffff166323b872dd3330856040518463ffffffff1660e01b81526004016122b893929190613f54565b602060405180830381600087803b1580156122d257600080fd5b505af11580156122e6573d6000803e3d6000fd5b505050506040513d601f19601f8201168201806040525081019061230a9190613916565b90508061234c576040517f08c379a0000000000000000000000000000000000000000000000000000000008152600401612343906142f5565b60405180910390fd5b81600a5461235a919061343f565b600a8190555060005b600b5481101561242e576000600c600083815260200190815260200160002060009054906101000a900473ffffffffffffffffffffffffffffffffffffffff16905060006123b082611022565b905060006123bc610d1d565b82876123c89190614315565b6123d2919061357f565b905080600e60008573ffffffffffffffffffffffffffffffffffffffff1673ffffffffffffffffffffffffffffffffffffffff168152602001908152602001600020819055505050508080612426906136d4565b915050612363565b506007547f5392b40904d8a7642587180f7acda2695b1d1cc8d999afdae3c7129e18b1f14583600a54604051612465929190613495565b60405180910390a25050565b600d6020528060005260406000206000915090505481565b601660009054906101000a900463ffffffff1681565b600a5481565b6000600160008473ffffffffffffffffffffffffffffffffffffffff1673ffffffffffffffffffffffffffffffffffffffff16815260200190815260200160002060008373ffffffffffffffffffffffffffffffffffffffff1673ffffffffffffffffffffffffffffffffffffffff16815260200190815260200160002054905092915050565b601580546125399061334c565b80601f01602080910402602001604051908101604052809291908181526020018280546125659061334c565b80156125b25780601f10612587576101008083540402835291602001916125b2565b820191906000526020600020905b81548152906001019060200180831161259557829003601f168201915b505050505081565b6125c2612840565b600073ffffffffffffffffffffffffffffffffffffffff168173ffffffffffffffffffffffffffffffffffffffff161415612632576040517f08c379a0000000000000000000000000000000000000000000000000000000008152600401612629906143e1565b60405180910390fd5b61263b81612c25565b50565b60085481565b60105481565b60125481565b600e6020528060005260406000206000915090505481565b505050565b600033905090565b600073ffffffffffffffffffffffffffffffffffffffff168373ffffffffffffffffffffffffffffffffffffffff1614156126e5576040517f08c379a00000000000000000000000000000000000000000000000000000000081526004016126dc90614473565b60405180910390fd5b600073ffffffffffffffffffffffffffffffffffffffff168273ffffffffffffffffffffffffffffffffffffffff161415612755576040517f08c379a000000000000000000000000000000000000000000000000000000000815260040161274c90614505565b60405180910390fd5b80600160008573ffffffffffffffffffffffffffffffffffffffff1673ffffffffffffffffffffffffffffffffffffffff16815260200190815260200160002060008473ffffffffffffffffffffffffffffffffffffffff1673ffffffffffffffffffffffffffffffffffffffff168152602001908152602001600020819055508173ffffffffffffffffffffffffffffffffffffffff168373ffffffffffffffffffffffffffffffffffffffff167f8c5be1e5ebec7d5bd14f71427d1e84f3dd0314c0f7b2291e5b200ac8c7c3b9258360405161283391906130e3565b60405180910390a3505050565b61284861266d565b73ffffffffffffffffffffffffffffffffffffffff166128666113e9565b73ffffffffffffffffffffffffffffffffffffffff16146128bc576040517f08c379a00000000000000000000000000000000000000000000000000000000081526004016128b390614571565b60405180910390fd5b565b60006128ca84846124a5565b90507fffffffffffffffffffffffffffffffffffffffffffffffffffffffffffffffff81146129445781811015612936576040517f08c379a000000000000000000000000000000000000000000000000000000000815260040161292d906145dd565b60405180910390fd5b6129438484848403612675565b5b50505050565b600073ffffffffffffffffffffffffffffffffffffffff168373ffffffffffffffffffffffffffffffffffffffff1614156129ba576040517f08c379a00000000000000000000000000000000000000000000000000000000081526004016129b19061466f565b60405180910390fd5b600073ffffffffffffffffffffffffffffffffffffffff168273ffffffffffffffffffffffffffffffffffffffff161415612a2a576040517f08c379a0000000000000000000000000000000000000000000000000000000008152600401612a2190614701565b60405180910390fd5b612a35838383612d4e565b60008060008573ffffffffffffffffffffffffffffffffffffffff1673ffffffffffffffffffffffffffffffffffffffff16815260200190815260200160002054905081811015612abb576040517f08c379a0000000000000000000000000000000000000000000000000000000008152600401612ab290614793565b60405180910390fd5b8181036000808673ffffffffffffffffffffffffffffffffffffffff1673ffffffffffffffffffffffffffffffffffffffff16815260200190815260200160002081905550816000808573ffffffffffffffffffffffffffffffffffffffff1673ffffffffffffffffffffffffffffffffffffffff168152602001908152602001600020600082825401925050819055508273ffffffffffffffffffffffffffffffffffffffff168473ffffffffffffffffffffffffffffffffffffffff167fddf252ad1be2c89b69c2b068fc378daa952ba7f163c4a11628f55a4df523b3ef84604051612ba991906130e3565b60405180910390a3612bbc848484612d66565b50505050565b612bca612d6b565b6000600560006101000a81548160ff0219169083151502179055507f5db9ee0a495bf2e6ff9c91a7834c1ba4fdd244a5e8aa4e537bd38aeae4b073aa612c0e61266d565b604051612c1b919061325f565b60405180910390a1565b6000600560019054906101000a900473ffffffffffffffffffffffffffffffffffffffff16905081600560016101000a81548173ffffffffffffffffffffffffffffffffffffffff021916908373ffffffffffffffffffffffffffffffffffffffff1602179055508173ffffffffffffffffffffffffffffffffffffffff168173ffffffffffffffffffffffffffffffffffffffff167f8be0079c531659141344cd1fd0a4f28419497f9722a3daafe3b4186f6b6457e060405160405180910390a35050565b612cf3612db4565b6001600560006101000a81548160ff0219169083151502179055507f62e78cea01bee320cd4e420270b5ea74000d11b0c9f74754ebdbfc544b05a258612d3761266d565b604051612d44919061325f565b60405180910390a1565b612d56612db4565b612d61838383612668565b505050565b505050565b612d73611005565b612db2576040517f08c379a0000000000000000000000000000000000000000000000000000000008152600401612da9906147ff565b60405180910390fd5b565b612dbc611005565b15612dfc576040517f08c379a0000000000000000000000000000000000000000000000000000000008152600401612df39061486b565b60405180910390fd5b565b7f4e487b7100000000000000000000000000000000000000000000000000000000600052602160045260246000fd5b60078110612e3e57612e3d612dfe565b5b50565b6000819050612e4f82612e2d565b919050565b6000612e5f82612e41565b9050919050565b612e6f81612e54565b82525050565b6000602082019050612e8a6000830184612e66565b92915050565b600081519050919050565b600082825260208201905092915050565b60005b83811015612eca578082015181840152602081019050612eaf565b83811115612ed9576000848401525b50505050565b6000601f19601f8301169050919050565b6000612efb82612e90565b612f058185612e9b565b9350612f15818560208601612eac565b612f1e81612edf565b840191505092915050565b60006020820190508181036000830152612f438184612ef0565b905092915050565b600080fd5b600073ffffffffffffffffffffffffffffffffffffffff82169050919050565b6000612f7b82612f50565b9050919050565b612f8b81612f70565b8114612f9657600080fd5b50565b600081359050612fa881612f82565b92915050565b6000819050919050565b612fc181612fae565b8114612fcc57600080fd5b50565b600081359050612fde81612fb8565b92915050565b60008060408385031215612ffb57612ffa612f4b565b5b600061300985828601612f99565b925050602061301a85828601612fcf565b9150509250929050565b60008115159050919050565b61303981613024565b82525050565b60006020820190506130546000830184613030565b92915050565b6000819050919050565b600061307f61307a61307584612f50565b61305a565b612f50565b9050919050565b600061309182613064565b9050919050565b60006130a382613086565b9050919050565b6130b381613098565b82525050565b60006020820190506130ce60008301846130aa565b92915050565b6130dd81612fae565b82525050565b60006020820190506130f860008301846130d4565b92915050565b600063ffffffff82169050919050565b613117816130fe565b82525050565b6000602082019050613132600083018461310e565b92915050565b60008060006060848603121561315157613150612f4b565b5b600061315f86828701612f99565b935050602061317086828701612f99565b925050604061318186828701612fcf565b9150509250925092565b600060ff82169050919050565b6131a18161318b565b82525050565b60006020820190506131bc6000830184613198565b92915050565b6000819050919050565b6131d5816131c2565b82525050565b60006020820190506131f060008301846131cc565b92915050565b60006020828403121561320c5761320b612f4b565b5b600061321a84828501612f99565b91505092915050565b60006020828403121561323957613238612f4b565b5b600061324784828501612fcf565b91505092915050565b61325981612f70565b82525050565b60006020820190506132746000830184613250565b92915050565b6003811061328b5761328a612dfe565b5b50565b600081905061329c8261327a565b919050565b60006132ac8261328e565b9050919050565b6132bc816132a1565b82525050565b60006020820190506132d760008301846132b3565b92915050565b600080604083850312156132f4576132f3612f4b565b5b600061330285828601612f99565b925050602061331385828601612f99565b9150509250929050565b7f4e487b7100000000000000000000000000000000000000000000000000000000600052602260045260246000fd5b6000600282049050600182168061336457607f821691505b602082108114156133785761337761331d565b5b50919050565b7f5468652063616d706169676e206973206e6f7420696e206e65772063616d706160008201527f69676e2070686173650000000000000000000000000000000000000000000000602082015250565b60006133da602983612e9b565b91506133e58261337e565b604082019050919050565b60006020820190508181036000830152613409816133cd565b9050919050565b7f4e487b7100000000000000000000000000000000000000000000000000000000600052601160045260246000fd5b600061344a82612fae565b915061345583612fae565b9250827fffffffffffffffffffffffffffffffffffffffffffffffffffffffffffffffff0382111561348a57613489613410565b5b828201905092915050565b60006040820190506134aa60008301856130d4565b6134b760208301846130d4565b9392505050565b7f5468652063616d706169676e206973206e6f7420696e2066756e64656420706860008201527f6173652c20736f2063616e206e6f742064726f702074686520746f6b656e7300602082015250565b600061351a603f83612e9b565b9150613525826134be565b604082019050919050565b600060208201905081810360008301526135498161350d565b9050919050565b7f4e487b7100000000000000000000000000000000000000000000000000000000600052601260045260246000fd5b600061358a82612fae565b915061359583612fae565b9250826135a5576135a4613550565b5b828204905092915050565b7f4572726f72206f6e20617070726f76696e672074686520746f6b656e7320746f60008201527f20696e766573746f720000000000000000000000000000000000000000000000602082015250565b600061360c602983612e9b565b9150613617826135b0565b604082019050919050565b6000602082019050818103600083015261363b816135ff565b9050919050565b7f4572726f72206f6e2064726f7070696e6720746f6b656e7320746f20696e766560008201527f73746f7200000000000000000000000000000000000000000000000000000000602082015250565b600061369e602483612e9b565b91506136a982613642565b604082019050919050565b600060208201905081810360008301526136cd81613691565b9050919050565b60006136df82612fae565b91507fffffffffffffffffffffffffffffffffffffffffffffffffffffffffffffffff82141561371257613711613410565b5b600182019050919050565b7f5468652063616d706169676e206973206e6f7420696e2072657061796d656e7460008201527f2070686173652c20736f20696e766573746f72732063616e206e6f742077697460208201527f68647261772066756e6473207965740000000000000000000000000000000000604082015250565b600061379f604f83612e9b565b91506137aa8261371d565b606082019050919050565b600060208201905081810360008301526137ce81613792565b9050919050565b7f416d6f756e7420746f207769746864726177206d75737420626520677265617460008201527f6572207468616e2031302055534420616e64206c657373207468616e2062616c60208201527f616e6365206f6620696e766573746f7200000000000000000000000000000000604082015250565b6000613857605083612e9b565b9150613862826137d5565b606082019050919050565b600060208201905081810360008301526138868161384a565b9050919050565b600061389882612fae565b91506138a383612fae565b9250828210156138b6576138b5613410565b5b828203905092915050565b60006040820190506138d66000830185613250565b6138e360208301846130d4565b9392505050565b6138f381613024565b81146138fe57600080fd5b50565b600081519050613910816138ea565b92915050565b60006020828403121561392c5761392b612f4b565b5b600061393a84828501613901565b91505092915050565b7f4572726f72206f6e207472616e73666572696e6720555344432074686174207460008201527f686520736d61727420636f6e74726163742068617320746f2074686520696e7660208201527f6573746f722c20706f72706f7274696f6e616c20746f2068697320696e76657360408201527f746d656e74000000000000000000000000000000000000000000000000000000606082015250565b60006139eb606583612e9b565b91506139f682613943565b608082019050919050565b60006020820190508181036000830152613a1a816139de565b9050919050565b7f5468652063616d706169676e206973206e6f7420696e2066756e64696e67207560008201527f736167652070686173652c20736f2069742063616e206e6f742077697468647260208201527f617720696e7665737465642066756e6473000000000000000000000000000000604082015250565b6000613aa3605183612e9b565b9150613aae82613a21565b606082019050919050565b60006020820190508181036000830152613ad281613a96565b9050919050565b7f54686520616d6f756e7420746f207769746864726177206d757374206265206760008201527f726561746572207468616e2031302055534420616e64206c657373207468616e60208201527f2074686520746f74616c2066756e646564000000000000000000000000000000604082015250565b6000613b5b605183612e9b565b9150613b6682613ad9565b606082019050919050565b60006020820190508181036000830152613b8a81613b4e565b9050919050565b7f4572726f72206f6e206d616b696e672066756e6473207769746864726177616c60008201527f20746f2069737375657200000000000000000000000000000000000000000000602082015250565b6000613bed602a83612e9b565b9150613bf882613b91565b604082019050919050565b60006020820190508181036000830152613c1c81613be0565b9050919050565b7f45524332303a2064656372656173656420616c6c6f77616e63652062656c6f7760008201527f207a65726f000000000000000000000000000000000000000000000000000000602082015250565b6000613c7f602583612e9b565b9150613c8a82613c23565b604082019050919050565b60006020820190508181036000830152613cae81613c72565b9050919050565b7f5468652063616d706169676e206973206e6f7420696e204e65772063616d706160008201527f69676e206e6f7220696e2046756e64696e672070686173650000000000000000602082015250565b6000613d11603883612e9b565b9150613d1c82613cb5565b604082019050919050565b60006020820190508181036000830152613d4081613d04565b9050919050565b7f5468652063616d706169676e206973206e6f7420696e2066756e64696e67207060008201527f6861736500000000000000000000000000000000000000000000000000000000602082015250565b6000613da3602483612e9b565b9150613dae82613d47565b604082019050919050565b60006020820190508181036000830152613dd281613d96565b9050919050565b6000613de482612fae565b9150613def83612fae565b925082613dff57613dfe613550565b5b828206905092915050565b7f416d6f756e7420746f206465706f736974206d7573742062652067726561746560008201527f72207468616e20313020616e64206d756c7469706c65206f6620313000000000602082015250565b6000613e66603c83612e9b565b9150613e7182613e0a565b604082019050919050565b60006020820190508181036000830152613e9581613e59565b9050919050565b7f416d6f756e7420746f206465706f736974206d757374206265206c6573732c2060008201527f6f746865727769736520657863656564732074686520696e7665736d656e742060208201527f676f616c00000000000000000000000000000000000000000000000000000000604082015250565b6000613f1e604483612e9b565b9150613f2982613e9c565b606082019050919050565b60006020820190508181036000830152613f4d81613f11565b9050919050565b6000606082019050613f696000830186613250565b613f766020830185613250565b613f8360408301846130d4565b949350505050565b7f4572726f72206f6e206d616b696e67205553444320696e766573746d656e742060008201527f6465706f73697400000000000000000000000000000000000000000000000000602082015250565b6000613fe7602783612e9b565b9150613ff282613f8b565b604082019050919050565b6000602082019050818103600083015261401681613fda565b9050919050565b6000614028826130fe565b9150614033836130fe565b92508163ffffffff04831182151516156140505761404f613410565b5b828202905092915050565b7f5468652063616d706169676e206973206e6f7420696e2061626f72746564207060008201527f6861736500000000000000000000000000000000000000000000000000000000602082015250565b60006140b7602483612e9b565b91506140c28261405b565b604082019050919050565b600060208201905081810360008301526140e6816140aa565b9050919050565b7f5468652063616d706169676e206973206e6f7420696e2072657061796d656e7460008201527f2070686173652c20736f2069742063616e206e6f742072657061792066756e6460208201527f7300000000000000000000000000000000000000000000000000000000000000604082015250565b600061416f604183612e9b565b915061417a826140ed565b606082019050919050565b6000602082019050818103600083015261419e81614162565b9050919050565b7f54686520616d6f756e7420746f2062652072657061796564206d75737420626560008201527f2067726561746572207468616e203130302055534420616e64206c657373207460208201527f68616e2074686520746f74616c20696e766573746d656e7420676f616c000000604082015250565b6000614227605d83612e9b565b9150614232826141a5565b606082019050919050565b600060208201905081810360008301526142568161421a565b9050919050565b7f4572726f72206f6e207472616e73666572696e6720646562742072657061796d60008201527f656e742066726f6d2069737375657220746f20736d61727420636f6e7472616360208201527f7400000000000000000000000000000000000000000000000000000000000000604082015250565b60006142df604183612e9b565b91506142ea8261425d565b606082019050919050565b6000602082019050818103600083015261430e816142d2565b9050919050565b600061432082612fae565b915061432b83612fae565b9250817fffffffffffffffffffffffffffffffffffffffffffffffffffffffffffffffff048311821515161561436457614363613410565b5b828202905092915050565b7f4f776e61626c653a206e6577206f776e657220697320746865207a65726f206160008201527f6464726573730000000000000000000000000000000000000000000000000000602082015250565b60006143cb602683612e9b565b91506143d68261436f565b604082019050919050565b600060208201905081810360008301526143fa816143be565b9050919050565b7f45524332303a20617070726f76652066726f6d20746865207a65726f2061646460008201527f7265737300000000000000000000000000000000000000000000000000000000602082015250565b600061445d602483612e9b565b915061446882614401565b604082019050919050565b6000602082019050818103600083015261448c81614450565b9050919050565b7f45524332303a20617070726f766520746f20746865207a65726f20616464726560008201527f7373000000000000000000000000000000000000000000000000000000000000602082015250565b60006144ef602283612e9b565b91506144fa82614493565b604082019050919050565b6000602082019050818103600083015261451e816144e2565b9050919050565b7f4f776e61626c653a2063616c6c6572206973206e6f7420746865206f776e6572600082015250565b600061455b602083612e9b565b915061456682614525565b602082019050919050565b6000602082019050818103600083015261458a8161454e565b9050919050565b7f45524332303a20696e73756666696369656e7420616c6c6f77616e6365000000600082015250565b60006145c7601d83612e9b565b91506145d282614591565b602082019050919050565b600060208201905081810360008301526145f6816145ba565b9050919050565b7f45524332303a207472616e736665722066726f6d20746865207a65726f20616460008201527f6472657373000000000000000000000000000000000000000000000000000000602082015250565b6000614659602583612e9b565b9150614664826145fd565b604082019050919050565b600060208201905081810360008301526146888161464c565b9050919050565b7f45524332303a207472616e7366657220746f20746865207a65726f206164647260008201527f6573730000000000000000000000000000000000000000000000000000000000602082015250565b60006146eb602383612e9b565b91506146f68261468f565b604082019050919050565b6000602082019050818103600083015261471a816146de565b9050919050565b7f45524332303a207472616e7366657220616d6f756e742065786365656473206260008201527f616c616e63650000000000000000000000000000000000000000000000000000602082015250565b600061477d602683612e9b565b915061478882614721565b604082019050919050565b600060208201905081810360008301526147ac81614770565b9050919050565b7f5061757361626c653a206e6f7420706175736564000000000000000000000000600082015250565b60006147e9601483612e9b565b91506147f4826147b3565b602082019050919050565b60006020820190508181036000830152614818816147dc565b9050919050565b7f5061757361626c653a2070617573656400000000000000000000000000000000600082015250565b6000614855601083612e9b565b91506148608261481f565b602082019050919050565b6000602082019050818103600083015261488481614848565b905091905056fea26469706673582212202a541e92940ecd1ce678a58b90960dac77b63882d7d657aa8b82bd5486d6ed4564736f6c63430008090033",
  "linkReferences": {},
  "deployedLinkReferences": {}
}